{
  "address": "0x270F227F2399b58A1eA67F75522d35e0A414427d",
  "abi": [
    {
      "inputs": [],
      "stateMutability": "nonpayable",
      "type": "constructor"
    },
    {
      "anonymous": false,
      "inputs": [
        {
          "indexed": true,
          "internalType": "uint256",
          "name": "itemId",
          "type": "uint256"
        },
        {
          "indexed": true,
          "internalType": "address",
          "name": "nftContract",
          "type": "address"
        },
        {
          "indexed": true,
          "internalType": "uint256",
          "name": "tokenId",
          "type": "uint256"
        },
        {
          "indexed": false,
          "internalType": "address",
          "name": "seller",
          "type": "address"
        },
        {
          "indexed": false,
          "internalType": "address",
          "name": "buyer",
          "type": "address"
        },
        {
          "indexed": false,
          "internalType": "uint256",
          "name": "price",
          "type": "uint256"
        },
        {
          "indexed": false,
          "internalType": "bool",
          "name": "sold",
          "type": "bool"
        }
      ],
      "name": "MarketItemCreated",
      "type": "event"
    },
    {
      "anonymous": false,
      "inputs": [
        {
          "indexed": true,
          "internalType": "address",
          "name": "previousOwner",
          "type": "address"
        },
        {
          "indexed": true,
          "internalType": "address",
          "name": "newOwner",
          "type": "address"
        }
      ],
      "name": "OwnershipTransferred",
      "type": "event"
    },
    {
      "inputs": [
        {
          "internalType": "address",
          "name": "nftContract",
          "type": "address"
        },
        {
          "internalType": "uint256",
          "name": "tokenId",
          "type": "uint256"
        },
        {
          "internalType": "uint256",
          "name": "price",
          "type": "uint256"
        }
      ],
      "name": "createMarketItem",
      "outputs": [],
      "stateMutability": "payable",
      "type": "function"
    },
    {
      "inputs": [
        {
          "internalType": "address",
          "name": "nftContract",
          "type": "address"
        },
        {
          "internalType": "uint256",
          "name": "itemId",
          "type": "uint256"
        }
      ],
      "name": "createMarketSale",
      "outputs": [],
      "stateMutability": "payable",
      "type": "function"
    },
    {
      "inputs": [],
      "name": "fetchItemsCreated",
      "outputs": [
        {
          "components": [
            {
              "internalType": "uint256",
              "name": "itemId",
              "type": "uint256"
            },
            {
              "internalType": "address",
              "name": "nftContract",
              "type": "address"
            },
            {
              "internalType": "uint256",
              "name": "tokenId",
              "type": "uint256"
            },
            {
              "internalType": "address payable",
              "name": "seller",
              "type": "address"
            },
            {
              "internalType": "address payable",
              "name": "buyer",
              "type": "address"
            },
            {
              "internalType": "uint256",
              "name": "price",
              "type": "uint256"
            },
            {
              "internalType": "bool",
              "name": "sold",
              "type": "bool"
            }
          ],
          "internalType": "struct NFTMarket.MarketItem[]",
          "name": "",
          "type": "tuple[]"
        }
      ],
      "stateMutability": "view",
      "type": "function"
    },
    {
      "inputs": [],
      "name": "fetchMarketItems",
      "outputs": [
        {
          "components": [
            {
              "internalType": "uint256",
              "name": "itemId",
              "type": "uint256"
            },
            {
              "internalType": "address",
              "name": "nftContract",
              "type": "address"
            },
            {
              "internalType": "uint256",
              "name": "tokenId",
              "type": "uint256"
            },
            {
              "internalType": "address payable",
              "name": "seller",
              "type": "address"
            },
            {
              "internalType": "address payable",
              "name": "buyer",
              "type": "address"
            },
            {
              "internalType": "uint256",
              "name": "price",
              "type": "uint256"
            },
            {
              "internalType": "bool",
              "name": "sold",
              "type": "bool"
            }
          ],
          "internalType": "struct NFTMarket.MarketItem[]",
          "name": "",
          "type": "tuple[]"
        }
      ],
      "stateMutability": "view",
      "type": "function"
    },
    {
      "inputs": [],
      "name": "fetchMyNFTs",
      "outputs": [
        {
          "components": [
            {
              "internalType": "uint256",
              "name": "itemId",
              "type": "uint256"
            },
            {
              "internalType": "address",
              "name": "nftContract",
              "type": "address"
            },
            {
              "internalType": "uint256",
              "name": "tokenId",
              "type": "uint256"
            },
            {
              "internalType": "address payable",
              "name": "seller",
              "type": "address"
            },
            {
              "internalType": "address payable",
              "name": "buyer",
              "type": "address"
            },
            {
              "internalType": "uint256",
              "name": "price",
              "type": "uint256"
            },
            {
              "internalType": "bool",
              "name": "sold",
              "type": "bool"
            }
          ],
          "internalType": "struct NFTMarket.MarketItem[]",
          "name": "",
          "type": "tuple[]"
        }
      ],
      "stateMutability": "view",
      "type": "function"
    },
    {
      "inputs": [],
      "name": "getListingPrice",
      "outputs": [
        {
          "internalType": "uint256",
          "name": "",
          "type": "uint256"
        }
      ],
      "stateMutability": "view",
      "type": "function"
    },
    {
      "inputs": [],
      "name": "listingPrice",
      "outputs": [
        {
          "internalType": "uint256",
          "name": "",
          "type": "uint256"
        }
      ],
      "stateMutability": "view",
      "type": "function"
    },
    {
      "inputs": [],
      "name": "owner",
      "outputs": [
        {
          "internalType": "address",
          "name": "",
          "type": "address"
        }
      ],
      "stateMutability": "view",
      "type": "function"
    },
    {
      "inputs": [],
      "name": "renounceOwnership",
      "outputs": [],
      "stateMutability": "nonpayable",
      "type": "function"
    },
    {
      "inputs": [
        {
          "internalType": "uint256",
          "name": "_listingPrice",
          "type": "uint256"
        }
      ],
      "name": "setListingPrice",
      "outputs": [],
      "stateMutability": "nonpayable",
      "type": "function"
    },
    {
      "inputs": [
        {
          "internalType": "address",
          "name": "newOwner",
          "type": "address"
        }
      ],
      "name": "transferOwnership",
      "outputs": [],
      "stateMutability": "nonpayable",
      "type": "function"
    }
  ],
  "transactionHash": "0xfb277fd2a3995a707684be433302c03ad91684ee3360a0d72d018ad974956dfd",
  "args": [],
  "numDeployments": 1,
  "solcInputHash": "17381e43eabfaa35e5a112bb2f11fe3d",
  "bytecode": "0x60806040526658d15e1762800060055534801561001b57600080fd5b50600160008190555061004061003561008660201b60201c565b61008e60201b60201c565b33600460006101000a81548173ffffffffffffffffffffffffffffffffffffffff021916908373ffffffffffffffffffffffffffffffffffffffff160217905550610154565b600033905090565b6000600160009054906101000a900473ffffffffffffffffffffffffffffffffffffffff16905081600160006101000a81548173ffffffffffffffffffffffffffffffffffffffff021916908373ffffffffffffffffffffffffffffffffffffffff1602179055508173ffffffffffffffffffffffffffffffffffffffff168173ffffffffffffffffffffffffffffffffffffffff167f8be0079c531659141344cd1fd0a4f28419497f9722a3daafe3b4186f6b6457e060405160405180910390a35050565b611e84806101636000396000f3fe60806040526004361061009c5760003560e01c80637c726b69116100645780637c726b69146101555780638da5cb5b1461017e578063c23b139e146101a9578063c78f19f9146101c5578063f064c32e146101f0578063f2fde38b1461021b5761009c565b80630f08efe0146100a157806312e85585146100cc578063202e3740146100f757806358eb2df514610122578063715018a61461013e575b600080fd5b3480156100ad57600080fd5b506100b6610244565b6040516100c39190611a3b565b60405180910390f35b3480156100d857600080fd5b506100e161055a565b6040516100ee9190611b1d565b60405180910390f35b34801561010357600080fd5b5061010c610564565b6040516101199190611a3b565b60405180910390f35b61013c600480360381019061013791906116ed565b6108fe565b005b34801561014a57600080fd5b50610153610c62565b005b34801561016157600080fd5b5061017c6004803603810190610177919061173c565b610cea565b005b34801561018a57600080fd5b50610193610d70565b6040516101a091906119a4565b60405180910390f35b6101c360048036038101906101be91906116b1565b610d9a565b005b3480156101d157600080fd5b506101da611053565b6040516101e79190611b1d565b60405180910390f35b3480156101fc57600080fd5b50610205611059565b6040516102129190611a3b565b60405180910390f35b34801561022757600080fd5b50610242600480360381019061023d9190611688565b6113f3565b005b6060600061025260026114eb565b9050600061026060036114eb565b61026a60026114eb565b6102749190611bd8565b90506000808267ffffffffffffffff8111156102b9577f4e487b7100000000000000000000000000000000000000000000000000000000600052604160045260246000fd5b6040519080825280602002602001820160405280156102f257816020015b6102df6115dd565b8152602001906001900390816102d75790505b50905060005b8481101561054f57600073ffffffffffffffffffffffffffffffffffffffff16600660006001846103299190611b82565b815260200190815260200160002060040160009054906101000a900473ffffffffffffffffffffffffffffffffffffffff1673ffffffffffffffffffffffffffffffffffffffff16141561053c5760006001826103869190611b82565b90506000600660008381526020019081526020016000209050806040518060e0016040529081600082015481526020016001820160009054906101000a900473ffffffffffffffffffffffffffffffffffffffff1673ffffffffffffffffffffffffffffffffffffffff1673ffffffffffffffffffffffffffffffffffffffff168152602001600282015481526020016003820160009054906101000a900473ffffffffffffffffffffffffffffffffffffffff1673ffffffffffffffffffffffffffffffffffffffff1673ffffffffffffffffffffffffffffffffffffffff1681526020016004820160009054906101000a900473ffffffffffffffffffffffffffffffffffffffff1673ffffffffffffffffffffffffffffffffffffffff1673ffffffffffffffffffffffffffffffffffffffff168152602001600582015481526020016006820160009054906101000a900460ff16151515158152505084868151811061051f577f4e487b7100000000000000000000000000000000000000000000000000000000600052603260045260246000fd5b60200260200101819052506001856105379190611b82565b945050505b808061054790611c66565b9150506102f8565b508094505050505090565b6000600554905090565b6060600061057260026114eb565b905060008060005b8381101561061b573373ffffffffffffffffffffffffffffffffffffffff16600660006001846105aa9190611b82565b815260200190815260200160002060040160009054906101000a900473ffffffffffffffffffffffffffffffffffffffff1673ffffffffffffffffffffffffffffffffffffffff161415610608576001836106059190611b82565b92505b808061061390611c66565b91505061057a565b5060008267ffffffffffffffff81111561065e577f4e487b7100000000000000000000000000000000000000000000000000000000600052604160045260246000fd5b60405190808252806020026020018201604052801561069757816020015b6106846115dd565b81526020019060019003908161067c5790505b50905060005b848110156108f3573373ffffffffffffffffffffffffffffffffffffffff16600660006001846106cd9190611b82565b815260200190815260200160002060040160009054906101000a900473ffffffffffffffffffffffffffffffffffffffff1673ffffffffffffffffffffffffffffffffffffffff1614156108e057600060018261072a9190611b82565b90506000600660008381526020019081526020016000209050806040518060e0016040529081600082015481526020016001820160009054906101000a900473ffffffffffffffffffffffffffffffffffffffff1673ffffffffffffffffffffffffffffffffffffffff1673ffffffffffffffffffffffffffffffffffffffff168152602001600282015481526020016003820160009054906101000a900473ffffffffffffffffffffffffffffffffffffffff1673ffffffffffffffffffffffffffffffffffffffff1673ffffffffffffffffffffffffffffffffffffffff1681526020016004820160009054906101000a900473ffffffffffffffffffffffffffffffffffffffff1673ffffffffffffffffffffffffffffffffffffffff1673ffffffffffffffffffffffffffffffffffffffff168152602001600582015481526020016006820160009054906101000a900460ff1615151515815250508486815181106108c3577f4e487b7100000000000000000000000000000000000000000000000000000000600052603260045260246000fd5b60200260200101819052506001856108db9190611b82565b945050505b80806108eb90611c66565b91505061069d565b508094505050505090565b60026000541415610944576040517f08c379a000000000000000000000000000000000000000000000000000000000815260040161093b90611add565b60405180910390fd5b60026000819055506000811161098f576040517f08c379a000000000000000000000000000000000000000000000000000000000815260040161098690611afd565b60405180910390fd5b60055434146109d3576040517f08c379a00000000000000000000000000000000000000000000000000000000081526004016109ca90611a5d565b60405180910390fd5b6109dd60026114f9565b60006109e960026114eb565b90506040518060e001604052808281526020018573ffffffffffffffffffffffffffffffffffffffff1681526020018481526020013373ffffffffffffffffffffffffffffffffffffffff168152602001600073ffffffffffffffffffffffffffffffffffffffff16815260200183815260200160001515815250600660008381526020019081526020016000206000820151816000015560208201518160010160006101000a81548173ffffffffffffffffffffffffffffffffffffffff021916908373ffffffffffffffffffffffffffffffffffffffff1602179055506040820151816002015560608201518160030160006101000a81548173ffffffffffffffffffffffffffffffffffffffff021916908373ffffffffffffffffffffffffffffffffffffffff16021790555060808201518160040160006101000a81548173ffffffffffffffffffffffffffffffffffffffff021916908373ffffffffffffffffffffffffffffffffffffffff16021790555060a0820151816005015560c08201518160060160006101000a81548160ff0219169083151502179055509050508373ffffffffffffffffffffffffffffffffffffffff166323b872dd3330866040518463ffffffff1660e01b8152600401610bca939291906119bf565b600060405180830381600087803b158015610be457600080fd5b505af1158015610bf8573d6000803e3d6000fd5b50505050828473ffffffffffffffffffffffffffffffffffffffff16827f045dfa01dcba2b36aba1d3dc4a874f4b0c5d2fbeb8d2c4b34a7d88c8d8f929d1336000876000604051610c4c94939291906119f6565b60405180910390a4506001600081905550505050565b610c6a61150f565b73ffffffffffffffffffffffffffffffffffffffff16610c88610d70565b73ffffffffffffffffffffffffffffffffffffffff1614610cde576040517f08c379a0000000000000000000000000000000000000000000000000000000008152600401610cd590611a9d565b60405180910390fd5b610ce86000611517565b565b610cf261150f565b73ffffffffffffffffffffffffffffffffffffffff16610d10610d70565b73ffffffffffffffffffffffffffffffffffffffff1614610d66576040517f08c379a0000000000000000000000000000000000000000000000000000000008152600401610d5d90611a9d565b60405180910390fd5b8060058190555050565b6000600160009054906101000a900473ffffffffffffffffffffffffffffffffffffffff16905090565b60026000541415610de0576040517f08c379a0000000000000000000000000000000000000000000000000000000008152600401610dd790611add565b60405180910390fd5b6002600081905550600060066000838152602001908152602001600020600501549050600060066000848152602001908152602001600020600201549050813414610e60576040517f08c379a0000000000000000000000000000000000000000000000000000000008152600401610e5790611abd565b60405180910390fd5b6006600084815260200190815260200160002060030160009054906101000a900473ffffffffffffffffffffffffffffffffffffffff1673ffffffffffffffffffffffffffffffffffffffff166108fc349081150290604051600060405180830381858888f19350505050158015610edc573d6000803e3d6000fd5b508373ffffffffffffffffffffffffffffffffffffffff166323b872dd3033846040518463ffffffff1660e01b8152600401610f1a939291906119bf565b600060405180830381600087803b158015610f3457600080fd5b505af1158015610f48573d6000803e3d6000fd5b50505050336006600085815260200190815260200160002060040160006101000a81548173ffffffffffffffffffffffffffffffffffffffff021916908373ffffffffffffffffffffffffffffffffffffffff16021790555060016006600085815260200190815260200160002060060160006101000a81548160ff021916908315150217905550610fda60036114f9565b600460009054906101000a900473ffffffffffffffffffffffffffffffffffffffff1673ffffffffffffffffffffffffffffffffffffffff166108fc6005549081150290604051600060405180830381858888f19350505050158015611044573d6000803e3d6000fd5b50505060016000819055505050565b60055481565b6060600061106760026114eb565b905060008060005b83811015611110573373ffffffffffffffffffffffffffffffffffffffff166006600060018461109f9190611b82565b815260200190815260200160002060030160009054906101000a900473ffffffffffffffffffffffffffffffffffffffff1673ffffffffffffffffffffffffffffffffffffffff1614156110fd576001836110fa9190611b82565b92505b808061110890611c66565b91505061106f565b5060008267ffffffffffffffff811115611153577f4e487b7100000000000000000000000000000000000000000000000000000000600052604160045260246000fd5b60405190808252806020026020018201604052801561118c57816020015b6111796115dd565b8152602001906001900390816111715790505b50905060005b848110156113e8573373ffffffffffffffffffffffffffffffffffffffff16600660006001846111c29190611b82565b815260200190815260200160002060030160009054906101000a900473ffffffffffffffffffffffffffffffffffffffff1673ffffffffffffffffffffffffffffffffffffffff1614156113d557600060018261121f9190611b82565b90506000600660008381526020019081526020016000209050806040518060e0016040529081600082015481526020016001820160009054906101000a900473ffffffffffffffffffffffffffffffffffffffff1673ffffffffffffffffffffffffffffffffffffffff1673ffffffffffffffffffffffffffffffffffffffff168152602001600282015481526020016003820160009054906101000a900473ffffffffffffffffffffffffffffffffffffffff1673ffffffffffffffffffffffffffffffffffffffff1673ffffffffffffffffffffffffffffffffffffffff1681526020016004820160009054906101000a900473ffffffffffffffffffffffffffffffffffffffff1673ffffffffffffffffffffffffffffffffffffffff1673ffffffffffffffffffffffffffffffffffffffff168152602001600582015481526020016006820160009054906101000a900460ff1615151515815250508486815181106113b8577f4e487b7100000000000000000000000000000000000000000000000000000000600052603260045260246000fd5b60200260200101819052506001856113d09190611b82565b945050505b80806113e090611c66565b915050611192565b508094505050505090565b6113fb61150f565b73ffffffffffffffffffffffffffffffffffffffff16611419610d70565b73ffffffffffffffffffffffffffffffffffffffff161461146f576040517f08c379a000000000000000000000000000000000000000000000000000000000815260040161146690611a9d565b60405180910390fd5b600073ffffffffffffffffffffffffffffffffffffffff168173ffffffffffffffffffffffffffffffffffffffff1614156114df576040517f08c379a00000000000000000000000000000000000000000000000000000000081526004016114d690611a7d565b60405180910390fd5b6114e881611517565b50565b600081600001549050919050565b6001816000016000828254019250508190555050565b600033905090565b6000600160009054906101000a900473ffffffffffffffffffffffffffffffffffffffff16905081600160006101000a81548173ffffffffffffffffffffffffffffffffffffffff021916908373ffffffffffffffffffffffffffffffffffffffff1602179055508173ffffffffffffffffffffffffffffffffffffffff168173ffffffffffffffffffffffffffffffffffffffff167f8be0079c531659141344cd1fd0a4f28419497f9722a3daafe3b4186f6b6457e060405160405180910390a35050565b6040518060e0016040528060008152602001600073ffffffffffffffffffffffffffffffffffffffff16815260200160008152602001600073ffffffffffffffffffffffffffffffffffffffff168152602001600073ffffffffffffffffffffffffffffffffffffffff168152602001600081526020016000151581525090565b60008135905061166d81611e20565b92915050565b60008135905061168281611e37565b92915050565b60006020828403121561169a57600080fd5b60006116a88482850161165e565b91505092915050565b600080604083850312156116c457600080fd5b60006116d28582860161165e565b92505060206116e385828601611673565b9150509250929050565b60008060006060848603121561170257600080fd5b60006117108682870161165e565b935050602061172186828701611673565b925050604061173286828701611673565b9150509250925092565b60006020828403121561174e57600080fd5b600061175c84828501611673565b91505092915050565b600061177183836118f8565b60e08301905092915050565b61178681611c1e565b82525050565b61179581611c0c565b82525050565b6117a481611c0c565b82525050565b60006117b582611b48565b6117bf8185611b60565b93506117ca83611b38565b8060005b838110156117fb5781516117e28882611765565b97506117ed83611b53565b9250506001810190506117ce565b5085935050505092915050565b61181181611c30565b82525050565b61182081611c30565b82525050565b6000611833601a83611b71565b915061183e82611cde565b602082019050919050565b6000611856602683611b71565b915061186182611d07565b604082019050919050565b6000611879602083611b71565b915061188482611d56565b602082019050919050565b600061189c603383611b71565b91506118a782611d7f565b604082019050919050565b60006118bf601f83611b71565b91506118ca82611dce565b602082019050919050565b60006118e2601c83611b71565b91506118ed82611df7565b602082019050919050565b60e08201600082015161190e6000850182611986565b506020820151611921602085018261178c565b5060408201516119346040850182611986565b506060820151611947606085018261177d565b50608082015161195a608085018261177d565b5060a082015161196d60a0850182611986565b5060c082015161198060c0850182611808565b50505050565b61198f81611c5c565b82525050565b61199e81611c5c565b82525050565b60006020820190506119b9600083018461179b565b92915050565b60006060820190506119d4600083018661179b565b6119e1602083018561179b565b6119ee6040830184611995565b949350505050565b6000608082019050611a0b600083018761179b565b611a18602083018661179b565b611a256040830185611995565b611a326060830184611817565b95945050505050565b60006020820190508181036000830152611a5581846117aa565b905092915050565b60006020820190508181036000830152611a7681611826565b9050919050565b60006020820190508181036000830152611a9681611849565b9050919050565b60006020820190508181036000830152611ab68161186c565b9050919050565b60006020820190508181036000830152611ad68161188f565b9050919050565b60006020820190508181036000830152611af6816118b2565b9050919050565b60006020820190508181036000830152611b16816118d5565b9050919050565b6000602082019050611b326000830184611995565b92915050565b6000819050602082019050919050565b600081519050919050565b6000602082019050919050565b600082825260208201905092915050565b600082825260208201905092915050565b6000611b8d82611c5c565b9150611b9883611c5c565b9250827fffffffffffffffffffffffffffffffffffffffffffffffffffffffffffffffff03821115611bcd57611bcc611caf565b5b828201905092915050565b6000611be382611c5c565b9150611bee83611c5c565b925082821015611c0157611c00611caf565b5b828203905092915050565b6000611c1782611c3c565b9050919050565b6000611c2982611c3c565b9050919050565b60008115159050919050565b600073ffffffffffffffffffffffffffffffffffffffff82169050919050565b6000819050919050565b6000611c7182611c5c565b91507fffffffffffffffffffffffffffffffffffffffffffffffffffffffffffffffff821415611ca457611ca3611caf565b5b600182019050919050565b7f4e487b7100000000000000000000000000000000000000000000000000000000600052601160045260246000fd5b7f5072696365206d757374203d206c697374696e67207072696365000000000000600082015250565b7f4f776e61626c653a206e6577206f776e657220697320746865207a65726f206160008201527f6464726573730000000000000000000000000000000000000000000000000000602082015250565b7f4f776e61626c653a2063616c6c6572206973206e6f7420746865206f776e6572600082015250565b7f506c65617365207375626d6974207468652061736b696e67207072696365207460008201527f6f20636f6d706c65746520707572636861736500000000000000000000000000602082015250565b7f5265656e7472616e637947756172643a207265656e7472616e742063616c6c00600082015250565b7f5072696365206d757374206265206174206c6561737420312077656900000000600082015250565b611e2981611c0c565b8114611e3457600080fd5b50565b611e4081611c5c565b8114611e4b57600080fd5b5056fea2646970667358221220320c3031bc8a3d18189594ce4583f3460aa5a019f9109e219d0c3233808f8e5464736f6c63430008040033",
  "devdoc": {
    "kind": "dev",
    "methods": {
      "owner()": {
        "details": "Returns the address of the current owner."
      },
      "renounceOwnership()": {
        "details": "Leaves the contract without owner. It will not be possible to call `onlyOwner` functions anymore. Can only be called by the current owner. NOTE: Renouncing ownership will leave the contract without an owner, thereby removing any functionality that is only available to the owner."
      },
      "transferOwnership(address)": {
        "details": "Transfers ownership of the contract to a new account (`newOwner`). Can only be called by the current owner."
      }
    },
    "version": 1
  },
  "userdoc": {
    "kind": "user",
    "methods": {},
    "version": 1
  },
  "storageLayout": {
    "storage": [
      {
        "astId": 739,
        "contract": "contracts/NFTMarket.sol:NFTMarket",
        "label": "_status",
        "offset": 0,
        "slot": "0",
        "type": "t_uint256"
      },
      {
        "astId": 539,
        "contract": "contracts/NFTMarket.sol:NFTMarket",
        "label": "_owner",
        "offset": 0,
        "slot": "1",
        "type": "t_address"
      },
      {
        "astId": 4088,
        "contract": "contracts/NFTMarket.sol:NFTMarket",
        "label": "_itemIds",
        "offset": 0,
        "slot": "2",
        "type": "t_struct(Counter)3097_storage"
      },
      {
        "astId": 4091,
        "contract": "contracts/NFTMarket.sol:NFTMarket",
        "label": "_itemsSold",
        "offset": 0,
        "slot": "3",
        "type": "t_struct(Counter)3097_storage"
      },
      {
        "astId": 4093,
        "contract": "contracts/NFTMarket.sol:NFTMarket",
        "label": "buyer",
        "offset": 0,
        "slot": "4",
        "type": "t_address_payable"
      },
      {
        "astId": 4096,
        "contract": "contracts/NFTMarket.sol:NFTMarket",
        "label": "listingPrice",
        "offset": 0,
        "slot": "5",
        "type": "t_uint256"
      },
      {
        "astId": 4128,
        "contract": "contracts/NFTMarket.sol:NFTMarket",
        "label": "idToMarketItem",
        "offset": 0,
        "slot": "6",
        "type": "t_mapping(t_uint256,t_struct(MarketItem)4123_storage)"
      }
    ],
    "types": {
      "t_address": {
        "encoding": "inplace",
        "label": "address",
        "numberOfBytes": "20"
      },
      "t_address_payable": {
        "encoding": "inplace",
        "label": "address payable",
        "numberOfBytes": "20"
      },
      "t_bool": {
        "encoding": "inplace",
        "label": "bool",
        "numberOfBytes": "1"
      },
      "t_mapping(t_uint256,t_struct(MarketItem)4123_storage)": {
        "encoding": "mapping",
        "key": "t_uint256",
        "label": "mapping(uint256 => struct NFTMarket.MarketItem)",
        "numberOfBytes": "32",
        "value": "t_struct(MarketItem)4123_storage"
      },
      "t_struct(Counter)3097_storage": {
        "encoding": "inplace",
        "label": "struct Counters.Counter",
        "members": [
          {
            "astId": 3096,
            "contract": "contracts/NFTMarket.sol:NFTMarket",
            "label": "_value",
            "offset": 0,
            "slot": "0",
            "type": "t_uint256"
          }
        ],
        "numberOfBytes": "32"
      },
      "t_struct(MarketItem)4123_storage": {
        "encoding": "inplace",
        "label": "struct NFTMarket.MarketItem",
        "members": [
          {
            "astId": 4110,
            "contract": "contracts/NFTMarket.sol:NFTMarket",
            "label": "itemId",
            "offset": 0,
            "slot": "0",
            "type": "t_uint256"
          },
          {
            "astId": 4112,
            "contract": "contracts/NFTMarket.sol:NFTMarket",
            "label": "nftContract",
            "offset": 0,
            "slot": "1",
            "type": "t_address"
          },
          {
            "astId": 4114,
            "contract": "contracts/NFTMarket.sol:NFTMarket",
            "label": "tokenId",
            "offset": 0,
            "slot": "2",
            "type": "t_uint256"
          },
          {
            "astId": 4116,
            "contract": "contracts/NFTMarket.sol:NFTMarket",
            "label": "seller",
            "offset": 0,
            "slot": "3",
            "type": "t_address_payable"
          },
          {
            "astId": 4118,
            "contract": "contracts/NFTMarket.sol:NFTMarket",
            "label": "buyer",
            "offset": 0,
            "slot": "4",
            "type": "t_address_payable"
          },
          {
            "astId": 4120,
            "contract": "contracts/NFTMarket.sol:NFTMarket",
            "label": "price",
            "offset": 0,
            "slot": "5",
            "type": "t_uint256"
          },
          {
            "astId": 4122,
            "contract": "contracts/NFTMarket.sol:NFTMarket",
            "label": "sold",
            "offset": 0,
            "slot": "6",
            "type": "t_bool"
          }
        ],
        "numberOfBytes": "224"
      },
      "t_uint256": {
        "encoding": "inplace",
        "label": "uint256",
        "numberOfBytes": "32"
      }
    }
  }
}