{
  "address": "0xe688AeEF2C11745336a651cE0b116d4Af6073D26",
  "abi": [
    {
      "inputs": [
        {
          "internalType": "address",
          "name": "_scharfnado",
          "type": "address"
        }
      ],
      "stateMutability": "nonpayable",
      "type": "constructor"
    },
    {
      "anonymous": false,
      "inputs": [
        {
          "indexed": true,
          "internalType": "address",
          "name": "previousOwner",
          "type": "address"
        },
        {
          "indexed": true,
          "internalType": "address",
          "name": "newOwner",
          "type": "address"
        }
      ],
      "name": "OwnershipTransferred",
      "type": "event"
    },
    {
      "inputs": [],
      "name": "dispense",
      "outputs": [],
      "stateMutability": "payable",
      "type": "function"
    },
    {
      "inputs": [],
      "name": "owner",
      "outputs": [
        {
          "internalType": "address",
          "name": "",
          "type": "address"
        }
      ],
      "stateMutability": "view",
      "type": "function"
    },
    {
      "inputs": [],
      "name": "renounceOwnership",
      "outputs": [],
      "stateMutability": "nonpayable",
      "type": "function"
    },
    {
      "inputs": [],
      "name": "scharfnado",
      "outputs": [
        {
          "internalType": "contract IERC20",
          "name": "",
          "type": "address"
        }
      ],
      "stateMutability": "view",
      "type": "function"
    },
    {
      "inputs": [
        {
          "internalType": "address",
          "name": "_scharfnado",
          "type": "address"
        }
      ],
      "name": "setScharfnado",
      "outputs": [],
      "stateMutability": "nonpayable",
      "type": "function"
    },
    {
      "inputs": [
        {
          "internalType": "address",
          "name": "newOwner",
          "type": "address"
        }
      ],
      "name": "transferOwnership",
      "outputs": [],
      "stateMutability": "nonpayable",
      "type": "function"
    }
  ],
  "transactionHash": "0x12b05e6ccddc52e3c7d413e5242004518da13cc6048d4dc22ab9c2c93cfa97a8",
  "args": [
    "0xA632cc721C61F3612c59Fdb4C9a07Ea3C2AF9c71"
  ],
  "numDeployments": 1,
  "solcInputHash": "17381e43eabfaa35e5a112bb2f11fe3d",
  "bytecode": "0x608060405234801561001057600080fd5b50604051610a28380380610a2883398181016040528101906100329190610176565b61004e61004361009560201b60201c565b61009d60201b60201c565b80600160006101000a81548173ffffffffffffffffffffffffffffffffffffffff021916908373ffffffffffffffffffffffffffffffffffffffff160217905550506101e8565b600033905090565b60008060009054906101000a900473ffffffffffffffffffffffffffffffffffffffff169050816000806101000a81548173ffffffffffffffffffffffffffffffffffffffff021916908373ffffffffffffffffffffffffffffffffffffffff1602179055508173ffffffffffffffffffffffffffffffffffffffff168173ffffffffffffffffffffffffffffffffffffffff167f8be0079c531659141344cd1fd0a4f28419497f9722a3daafe3b4186f6b6457e060405160405180910390a35050565b600081519050610170816101d1565b92915050565b60006020828403121561018857600080fd5b600061019684828501610161565b91505092915050565b60006101aa826101b1565b9050919050565b600073ffffffffffffffffffffffffffffffffffffffff82169050919050565b6101da8161019f565b81146101e557600080fd5b50565b610831806101f76000396000f3fe6080604052600436106100555760003560e01c80630adb1a9a1461005a5780631d15a47b14610064578063715018a61461008d57806375358542146100a45780638da5cb5b146100cf578063f2fde38b146100fa575b600080fd5b610062610123565b005b34801561007057600080fd5b5061008b60048036038101906100869190610562565b6101dd565b005b34801561009957600080fd5b506100a261029d565b005b3480156100b057600080fd5b506100b9610325565b6040516100c6919061066b565b60405180910390f35b3480156100db57600080fd5b506100e461034b565b6040516100f19190610627565b60405180910390f35b34801561010657600080fd5b50610121600480360381019061011c9190610562565b610374565b005b600160009054906101000a900473ffffffffffffffffffffffffffffffffffffffff1673ffffffffffffffffffffffffffffffffffffffff1663a9059cbb33670de0b6b3a76400006040518363ffffffff1660e01b8152600401610188929190610642565b602060405180830381600087803b1580156101a257600080fd5b505af11580156101b6573d6000803e3d6000fd5b505050506040513d601f19601f820116820180604052508101906101da919061058b565b50565b6101e561046c565b73ffffffffffffffffffffffffffffffffffffffff1661020361034b565b73ffffffffffffffffffffffffffffffffffffffff1614610259576040517f08c379a0000000000000000000000000000000000000000000000000000000008152600401610250906106a6565b60405180910390fd5b80600160006101000a81548173ffffffffffffffffffffffffffffffffffffffff021916908373ffffffffffffffffffffffffffffffffffffffff16021790555050565b6102a561046c565b73ffffffffffffffffffffffffffffffffffffffff166102c361034b565b73ffffffffffffffffffffffffffffffffffffffff1614610319576040517f08c379a0000000000000000000000000000000000000000000000000000000008152600401610310906106a6565b60405180910390fd5b6103236000610474565b565b600160009054906101000a900473ffffffffffffffffffffffffffffffffffffffff1681565b60008060009054906101000a900473ffffffffffffffffffffffffffffffffffffffff16905090565b61037c61046c565b73ffffffffffffffffffffffffffffffffffffffff1661039a61034b565b73ffffffffffffffffffffffffffffffffffffffff16146103f0576040517f08c379a00000000000000000000000000000000000000000000000000000000081526004016103e7906106a6565b60405180910390fd5b600073ffffffffffffffffffffffffffffffffffffffff168173ffffffffffffffffffffffffffffffffffffffff161415610460576040517f08c379a000000000000000000000000000000000000000000000000000000000815260040161045790610686565b60405180910390fd5b61046981610474565b50565b600033905090565b60008060009054906101000a900473ffffffffffffffffffffffffffffffffffffffff169050816000806101000a81548173ffffffffffffffffffffffffffffffffffffffff021916908373ffffffffffffffffffffffffffffffffffffffff1602179055508173ffffffffffffffffffffffffffffffffffffffff168173ffffffffffffffffffffffffffffffffffffffff167f8be0079c531659141344cd1fd0a4f28419497f9722a3daafe3b4186f6b6457e060405160405180910390a35050565b600081359050610547816107cd565b92915050565b60008151905061055c816107e4565b92915050565b60006020828403121561057457600080fd5b600061058284828501610538565b91505092915050565b60006020828403121561059d57600080fd5b60006105ab8482850161054d565b91505092915050565b6105bd816106d7565b82525050565b6105cc8161071f565b82525050565b6105db81610743565b82525050565b60006105ee6026836106c6565b91506105f982610755565b604082019050919050565b60006106116020836106c6565b915061061c826107a4565b602082019050919050565b600060208201905061063c60008301846105b4565b92915050565b600060408201905061065760008301856105b4565b61066460208301846105d2565b9392505050565b600060208201905061068060008301846105c3565b92915050565b6000602082019050818103600083015261069f816105e1565b9050919050565b600060208201905081810360008301526106bf81610604565b9050919050565b600082825260208201905092915050565b60006106e2826106f5565b9050919050565b60008115159050919050565b600073ffffffffffffffffffffffffffffffffffffffff82169050919050565b6000819050919050565b600061072a82610731565b9050919050565b600061073c826106f5565b9050919050565b600061074e82610715565b9050919050565b7f4f776e61626c653a206e6577206f776e657220697320746865207a65726f206160008201527f6464726573730000000000000000000000000000000000000000000000000000602082015250565b7f4f776e61626c653a2063616c6c6572206973206e6f7420746865206f776e6572600082015250565b6107d6816106d7565b81146107e157600080fd5b50565b6107ed816106e9565b81146107f857600080fd5b5056fea264697066735822122036048114234698d303c5f3490d084953f93fd4ce153016e190a571b2fe1ccf9064736f6c63430008040033",
  "devdoc": {
    "kind": "dev",
    "methods": {
      "owner()": {
        "details": "Returns the address of the current owner."
      },
      "renounceOwnership()": {
        "details": "Leaves the contract without owner. It will not be possible to call `onlyOwner` functions anymore. Can only be called by the current owner. NOTE: Renouncing ownership will leave the contract without an owner, thereby removing any functionality that is only available to the owner."
      },
      "transferOwnership(address)": {
        "details": "Transfers ownership of the contract to a new account (`newOwner`). Can only be called by the current owner."
      }
    },
    "version": 1
  },
  "userdoc": {
    "kind": "user",
    "methods": {},
    "version": 1
  },
  "storageLayout": {
    "storage": [
      {
        "astId": 539,
        "contract": "contracts/ScharfnadoFaucet.sol:ScharfnadoFaucet",
        "label": "_owner",
        "offset": 0,
        "slot": "0",
        "type": "t_address"
      },
      {
        "astId": 4681,
        "contract": "contracts/ScharfnadoFaucet.sol:ScharfnadoFaucet",
        "label": "scharfnado",
        "offset": 0,
        "slot": "1",
        "type": "t_contract(IERC20)1392"
      }
    ],
    "types": {
      "t_address": {
        "encoding": "inplace",
        "label": "address",
        "numberOfBytes": "20"
      },
      "t_contract(IERC20)1392": {
        "encoding": "inplace",
        "label": "contract IERC20",
        "numberOfBytes": "20"
      }
    }
  }
}