{
  "address": "0x9A389BaE328881dDF7F99c9538b2C4A6f0602DEc",
  "abi": [
    {
      "inputs": [],
      "stateMutability": "payable",
      "type": "constructor"
    },
    {
      "inputs": [],
      "name": "amountAllowed",
      "outputs": [
        {
          "internalType": "uint256",
          "name": "",
          "type": "uint256"
        }
      ],
      "stateMutability": "view",
      "type": "function"
    },
    {
      "inputs": [],
      "name": "donateTofaucet",
      "outputs": [],
      "stateMutability": "payable",
      "type": "function"
    },
    {
      "inputs": [
        {
          "internalType": "address",
          "name": "",
          "type": "address"
        }
      ],
      "name": "lockTime",
      "outputs": [
        {
          "internalType": "uint256",
          "name": "",
          "type": "uint256"
        }
      ],
      "stateMutability": "view",
      "type": "function"
    },
    {
      "inputs": [],
      "name": "owner",
      "outputs": [
        {
          "internalType": "address",
          "name": "",
          "type": "address"
        }
      ],
      "stateMutability": "view",
      "type": "function"
    },
    {
      "inputs": [
        {
          "internalType": "address payable",
          "name": "_requestor",
          "type": "address"
        }
      ],
      "name": "requestTokens",
      "outputs": [],
      "stateMutability": "payable",
      "type": "function"
    },
    {
      "inputs": [
        {
          "internalType": "uint256",
          "name": "newAmountAllowed",
          "type": "uint256"
        }
      ],
      "name": "setAmountallowed",
      "outputs": [],
      "stateMutability": "nonpayable",
      "type": "function"
    },
    {
      "inputs": [
        {
          "internalType": "address",
          "name": "newOwner",
          "type": "address"
        }
      ],
      "name": "setOwner",
      "outputs": [],
      "stateMutability": "nonpayable",
      "type": "function"
    }
  ],
  "transactionHash": "0x96f523ea6e300a615bfa98c4d74a5aa6e453e43a1213126809297782ed82c6d5",
  "args": [],
  "numDeployments": 1,
  "solcInputHash": "cbe3cca7514b236e9fd343f777a6a157",
  "bytecode": "0x6080604052670de0b6b3a7640000600255600160008190555033600160006101000a81548173ffffffffffffffffffffffffffffffffffffffff021916908373ffffffffffffffffffffffffffffffffffffffff16021790555061097c806100686000396000f3fe6080604052600436106100705760003560e01c80638da5cb5b1161004e5780638da5cb5b146100c45780639ad2cd14146100ef578063a4beda631461011a578063f3aa52a11461015757610070565b806313af403514610075578063580f39041461009e578063605e73cd146100ba575b600080fd5b34801561008157600080fd5b5061009c6004803603810190610097919061052c565b610180565b005b6100b860048036038101906100b39190610555565b610254565b005b6100c261040d565b005b3480156100d057600080fd5b506100d961040f565b6040516100e69190610651565b60405180910390f35b3480156100fb57600080fd5b50610104610435565b60405161011191906106ec565b60405180910390f35b34801561012657600080fd5b50610141600480360381019061013c919061052c565b61043b565b60405161014e91906106ec565b60405180910390f35b34801561016357600080fd5b5061017e6004803603810190610179919061057e565b610453565b005b600160009054906101000a900473ffffffffffffffffffffffffffffffffffffffff1673ffffffffffffffffffffffffffffffffffffffff163373ffffffffffffffffffffffffffffffffffffffff1614610210576040517f08c379a00000000000000000000000000000000000000000000000000000000081526004016102079061066c565b60405180910390fd5b80600160006101000a81548173ffffffffffffffffffffffffffffffffffffffff021916908373ffffffffffffffffffffffffffffffffffffffff16021790555050565b6002600054141561029a576040517f08c379a0000000000000000000000000000000000000000000000000000000008152600401610291906106cc565b60405180910390fd5b6002600081905550600360003373ffffffffffffffffffffffffffffffffffffffff1673ffffffffffffffffffffffffffffffffffffffff168152602001908152602001600020544211610323576040517f08c379a000000000000000000000000000000000000000000000000000000000815260040161031a9061068c565b60405180910390fd5b6002544711610367576040517f08c379a000000000000000000000000000000000000000000000000000000000815260040161035e906106ac565b60405180910390fd5b8073ffffffffffffffffffffffffffffffffffffffff166108fc6002549081150290604051600060405180830381858888f193505050501580156103af573d6000803e3d6000fd5b5062015180426103bf9190610718565b600360003373ffffffffffffffffffffffffffffffffffffffff1673ffffffffffffffffffffffffffffffffffffffff16815260200190815260200160002081905550600160008190555050565b565b600160009054906101000a900473ffffffffffffffffffffffffffffffffffffffff1681565b60025481565b60036020528060005260406000206000915090505481565b600160009054906101000a900473ffffffffffffffffffffffffffffffffffffffff1673ffffffffffffffffffffffffffffffffffffffff163373ffffffffffffffffffffffffffffffffffffffff16146104e3576040517f08c379a00000000000000000000000000000000000000000000000000000000081526004016104da9061066c565b60405180910390fd5b8060028190555050565b6000813590506104fc81610901565b92915050565b60008135905061051181610918565b92915050565b6000813590506105268161092f565b92915050565b60006020828403121561053e57600080fd5b600061054c848285016104ed565b91505092915050565b60006020828403121561056757600080fd5b600061057584828501610502565b91505092915050565b60006020828403121561059057600080fd5b600061059e84828501610517565b91505092915050565b6105b08161076e565b82525050565b60006105c3602283610707565b91506105ce826107eb565b604082019050919050565b60006105e6603183610707565b91506105f18261083a565b604082019050919050565b6000610609602d83610707565b915061061482610889565b604082019050919050565b600061062c601f83610707565b9150610637826108d8565b602082019050919050565b61064b816107b2565b82525050565b600060208201905061066660008301846105a7565b92915050565b60006020820190508181036000830152610685816105b6565b9050919050565b600060208201905081810360008301526106a5816105d9565b9050919050565b600060208201905081810360008301526106c5816105fc565b9050919050565b600060208201905081810360008301526106e58161061f565b9050919050565b60006020820190506107016000830184610642565b92915050565b600082825260208201905092915050565b6000610723826107b2565b915061072e836107b2565b9250827fffffffffffffffffffffffffffffffffffffffffffffffffffffffffffffffff03821115610763576107626107bc565b5b828201905092915050565b600061077982610792565b9050919050565b600061078b82610792565b9050919050565b600073ffffffffffffffffffffffffffffffffffffffff82169050919050565b6000819050919050565b7f4e487b7100000000000000000000000000000000000000000000000000000000600052601160045260246000fd5b7f4f6e6c79206f776e65722063616e2063616c6c20746869732066756e6374696f60008201527f6e2e000000000000000000000000000000000000000000000000000000000000602082015250565b7f6c6f636b2074696d6520686173206e6f7420657870697265642e20506c65617360008201527f652074727920616761696e206c61746572000000000000000000000000000000602082015250565b7f4e6f7420656e6f7567682066756e647320696e20746865206661756365742e2060008201527f506c6561736520646f6e61746500000000000000000000000000000000000000602082015250565b7f5265656e7472616e637947756172643a207265656e7472616e742063616c6c00600082015250565b61090a8161076e565b811461091557600080fd5b50565b61092181610780565b811461092c57600080fd5b50565b610938816107b2565b811461094357600080fd5b5056fea2646970667358221220afb189f98db6d1d8caca2a6ed32dfed532f9ffc7bcd98818140c3cadb70b500664736f6c63430008040033",
  "devdoc": {
    "kind": "dev",
    "methods": {},
    "version": 1
  },
  "userdoc": {
    "kind": "user",
    "methods": {},
    "version": 1
  },
  "storageLayout": {
    "storage": [
      {
        "astId": 739,
        "contract": "contracts/ETHFaucet.sol:ETHFaucet",
        "label": "_status",
        "offset": 0,
        "slot": "0",
        "type": "t_uint256"
      },
      {
        "astId": 4010,
        "contract": "contracts/ETHFaucet.sol:ETHFaucet",
        "label": "owner",
        "offset": 0,
        "slot": "1",
        "type": "t_address"
      },
      {
        "astId": 4013,
        "contract": "contracts/ETHFaucet.sol:ETHFaucet",
        "label": "amountAllowed",
        "offset": 0,
        "slot": "2",
        "type": "t_uint256"
      },
      {
        "astId": 4017,
        "contract": "contracts/ETHFaucet.sol:ETHFaucet",
        "label": "lockTime",
        "offset": 0,
        "slot": "3",
        "type": "t_mapping(t_address,t_uint256)"
      }
    ],
    "types": {
      "t_address": {
        "encoding": "inplace",
        "label": "address",
        "numberOfBytes": "20"
      },
      "t_mapping(t_address,t_uint256)": {
        "encoding": "mapping",
        "key": "t_address",
        "label": "mapping(address => uint256)",
        "numberOfBytes": "32",
        "value": "t_uint256"
      },
      "t_uint256": {
        "encoding": "inplace",
        "label": "uint256",
        "numberOfBytes": "32"
      }
    }
  }
}